{
  "_format": "hh-sol-artifact-1",
  "contractName": "HealthFile",
  "sourceName": "contracts/HealthFile.sol",
  "abi": [
    {
      "anonymous": false,
      "inputs": [
        {
          "indexed": false,
          "internalType": "uint256",
          "name": "recorId",
          "type": "uint256"
        },
        {
          "indexed": false,
          "internalType": "uint256",
          "name": "timestamp",
          "type": "uint256"
        },
        {
          "indexed": false,
          "internalType": "string",
          "name": "name",
          "type": "string"
        },
        {
          "indexed": false,
          "internalType": "uint256",
          "name": "age",
          "type": "uint256"
        },
        {
          "indexed": false,
          "internalType": "string",
          "name": "gender",
          "type": "string"
        },
        {
          "indexed": false,
          "internalType": "string",
          "name": "bloodGroup",
          "type": "string"
        },
        {
          "indexed": false,
          "internalType": "string",
          "name": "allergies",
          "type": "string"
        },
        {
          "indexed": false,
          "internalType": "string",
          "name": "diagnosis",
          "type": "string"
        },
        {
          "indexed": false,
          "internalType": "string",
          "name": "treatment",
          "type": "string"
        }
      ],
      "name": "HealthFile__AddRecord",
      "type": "event"
    },
    {
      "anonymous": false,
      "inputs": [
        {
          "indexed": false,
          "internalType": "uint256",
          "name": "recorId",
          "type": "uint256"
        },
        {
          "indexed": false,
          "internalType": "uint256",
          "name": "timestamp",
          "type": "uint256"
        },
        {
          "indexed": false,
          "internalType": "string",
          "name": "name",
          "type": "string"
        },
        {
          "indexed": false,
          "internalType": "uint256",
          "name": "age",
          "type": "uint256"
        },
        {
          "indexed": false,
          "internalType": "string",
          "name": "gender",
          "type": "string"
        },
        {
          "indexed": false,
          "internalType": "string",
          "name": "bloodGroup",
          "type": "string"
        },
        {
          "indexed": false,
          "internalType": "string",
          "name": "allergies",
          "type": "string"
        },
        {
          "indexed": false,
          "internalType": "string",
          "name": "diagnosis",
          "type": "string"
        },
        {
          "indexed": false,
          "internalType": "string",
          "name": "treatment",
          "type": "string"
        }
      ],
      "name": "HealthFile__DeleteRecord",
      "type": "event"
    },
    {
      "inputs": [
        {
          "internalType": "string",
          "name": "_name",
          "type": "string"
        },
        {
          "internalType": "uint256",
          "name": "_age",
          "type": "uint256"
        },
        {
          "internalType": "string",
          "name": "_gender",
          "type": "string"
        },
        {
          "internalType": "string",
          "name": "_bloodGroup",
          "type": "string"
        },
        {
          "internalType": "string",
          "name": "_allergies",
          "type": "string"
        },
        {
          "internalType": "string",
          "name": "_diagnosis",
          "type": "string"
        },
        {
          "internalType": "string",
          "name": "_treatment",
          "type": "string"
        }
      ],
      "name": "addRecord",
      "outputs": [],
      "stateMutability": "nonpayable",
      "type": "function"
    },
    {
      "inputs": [
        {
          "internalType": "uint256",
          "name": "_recordId",
          "type": "uint256"
        }
      ],
      "name": "deleteRecord",
      "outputs": [],
      "stateMutability": "nonpayable",
      "type": "function"
    },
    {
      "inputs": [
        {
          "internalType": "uint256",
          "name": "_recordId",
          "type": "uint256"
        }
      ],
      "name": "getAge",
      "outputs": [
        {
          "internalType": "uint256",
          "name": "",
          "type": "uint256"
        }
      ],
      "stateMutability": "view",
      "type": "function"
    },
    {
      "inputs": [],
      "name": "getAllRecords",
      "outputs": [
        {
          "components": [
            {
              "internalType": "uint256",
              "name": "recordId",
              "type": "uint256"
            },
            {
              "internalType": "uint256",
              "name": "timestamp",
              "type": "uint256"
            },
            {
              "internalType": "string",
              "name": "name",
              "type": "string"
            },
            {
              "internalType": "uint256",
              "name": "age",
              "type": "uint256"
            },
            {
              "internalType": "string",
              "name": "gender",
              "type": "string"
            },
            {
              "internalType": "string",
              "name": "bloodGroup",
              "type": "string"
            },
            {
              "internalType": "string",
              "name": "allergies",
              "type": "string"
            },
            {
              "internalType": "string",
              "name": "diagnosis",
              "type": "string"
            },
            {
              "internalType": "string",
              "name": "treatment",
              "type": "string"
            }
          ],
          "internalType": "struct HealthFile.Record[]",
          "name": "",
          "type": "tuple[]"
        }
      ],
      "stateMutability": "view",
      "type": "function"
    },
    {
      "inputs": [
        {
          "internalType": "uint256",
          "name": "_recordId",
          "type": "uint256"
        }
      ],
      "name": "getAllergies",
      "outputs": [
        {
          "internalType": "string",
          "name": "",
          "type": "string"
        }
      ],
      "stateMutability": "view",
      "type": "function"
    },
    {
      "inputs": [
        {
          "internalType": "uint256",
          "name": "_recordId",
          "type": "uint256"
        }
      ],
      "name": "getBloodGroup",
      "outputs": [
        {
          "internalType": "string",
          "name": "",
          "type": "string"
        }
      ],
      "stateMutability": "view",
      "type": "function"
    },
    {
      "inputs": [
        {
          "internalType": "uint256",
          "name": "_recordId",
          "type": "uint256"
        }
      ],
      "name": "getDeleted",
      "outputs": [
        {
          "internalType": "bool",
          "name": "",
          "type": "bool"
        }
      ],
      "stateMutability": "view",
      "type": "function"
    },
    {
      "inputs": [
        {
          "internalType": "uint256",
          "name": "_recordId",
          "type": "uint256"
        }
      ],
      "name": "getDiagnosis",
      "outputs": [
        {
          "internalType": "string",
          "name": "",
          "type": "string"
        }
      ],
      "stateMutability": "view",
      "type": "function"
    },
    {
      "inputs": [
        {
          "internalType": "uint256",
          "name": "_recordId",
          "type": "uint256"
        }
      ],
      "name": "getGender",
      "outputs": [
        {
          "internalType": "string",
          "name": "",
          "type": "string"
        }
      ],
      "stateMutability": "view",
      "type": "function"
    },
    {
      "inputs": [
        {
          "internalType": "uint256",
          "name": "_recordId",
          "type": "uint256"
        }
      ],
      "name": "getName",
      "outputs": [
        {
          "internalType": "string",
          "name": "",
          "type": "string"
        }
      ],
      "stateMutability": "view",
      "type": "function"
    },
    {
      "inputs": [
        {
          "internalType": "uint256",
          "name": "_recordId",
          "type": "uint256"
        }
      ],
      "name": "getRecord",
      "outputs": [
        {
          "internalType": "uint256",
          "name": "",
          "type": "uint256"
        },
        {
          "internalType": "string",
          "name": "",
          "type": "string"
        },
        {
          "internalType": "uint256",
          "name": "",
          "type": "uint256"
        },
        {
          "internalType": "string",
          "name": "",
          "type": "string"
        },
        {
          "internalType": "string",
          "name": "",
          "type": "string"
        },
        {
          "internalType": "string",
          "name": "",
          "type": "string"
        },
        {
          "internalType": "string",
          "name": "",
          "type": "string"
        },
        {
          "internalType": "string",
          "name": "",
          "type": "string"
        }
      ],
      "stateMutability": "view",
      "type": "function"
    },
    {
      "inputs": [],
      "name": "getRecordId",
      "outputs": [
        {
          "internalType": "uint256",
          "name": "",
          "type": "uint256"
        }
      ],
      "stateMutability": "view",
      "type": "function"
    },
    {
      "inputs": [
        {
          "internalType": "uint256",
          "name": "_recordId",
          "type": "uint256"
        }
      ],
      "name": "getTimestamp",
      "outputs": [
        {
          "internalType": "uint256",
          "name": "",
          "type": "uint256"
        }
      ],
      "stateMutability": "view",
      "type": "function"
    },
    {
      "inputs": [
        {
          "internalType": "uint256",
          "name": "_recordId",
          "type": "uint256"
        }
      ],
      "name": "getTreatment",
      "outputs": [
        {
          "internalType": "string",
          "name": "",
          "type": "string"
        }
      ],
      "stateMutability": "view",
      "type": "function"
    },
    {
      "inputs": [
        {
          "internalType": "uint256",
          "name": "",
          "type": "uint256"
        }
      ],
      "name": "isDeleted",
      "outputs": [
        {
          "internalType": "bool",
          "name": "",
          "type": "bool"
        }
      ],
      "stateMutability": "view",
      "type": "function"
    },
    {
      "inputs": [],
      "name": "recordCount",
      "outputs": [
        {
          "internalType": "uint256",
          "name": "",
          "type": "uint256"
        }
      ],
      "stateMutability": "view",
      "type": "function"
    },
    {
      "inputs": [],
      "name": "recordId",
      "outputs": [
        {
          "internalType": "uint256",
          "name": "",
          "type": "uint256"
        }
      ],
      "stateMutability": "view",
      "type": "function"
    }
  ],
  "bytecode": "0x608060405234801561001057600080fd5b50612015806100206000396000f3fe608060405234801561001057600080fd5b506004361061010b5760003560e01c806397f6c84c116100a2578063ab59694611610071578063ab596946146102f9578063b633620c14610329578063e06d2eb514610359578063f26c5f5f14610389578063f7dfe22b146103b95761010b565b806397f6c84c1461025d57806399055dda1461028d5780639baf550a146102ab578063a7f9fe72146102db5761010b565b80636b8ff574116100de5780636b8ff574146101af57806373c440db146101df578063900407bc1461020f57806394182c361461022d5761010b565b806303e9e60914610110578063061f9811146101475780630e37008a1461016357806333c3f9a414610193575b600080fd5b61012a60048036038101906101259190611372565b6103d7565b60405161013e98979695949392919061143e565b60405180910390f35b610161600480360381019061015c9190611372565b610782565b005b61017d60048036038101906101789190611372565b61088b565b60405161018a91906114e6565b60405180910390f35b6101ad60048036038101906101a89190611636565b6108ab565b005b6101c960048036038101906101c49190611372565b610a28565b6040516101d69190611780565b60405180910390f35b6101f960048036038101906101f49190611372565b610ad0565b6040516102069190611780565b60405180910390f35b610217610b78565b60405161022491906114e6565b60405180910390f35b61024760048036038101906102429190611372565b610b7e565b60405161025491906117bd565b60405180910390f35b61027760048036038101906102729190611372565b610b9e565b6040516102849190611780565b60405180910390f35b610295610c46565b6040516102a291906114e6565b60405180910390f35b6102c560048036038101906102c09190611372565b610c4f565b6040516102d29190611780565b60405180910390f35b6102e3610cf7565b6040516102f091906119db565b60405180910390f35b610313600480360381019061030e9190611372565b61113c565b60405161032091906117bd565b60405180910390f35b610343600480360381019061033e9190611372565b611166565b60405161035091906114e6565b60405180910390f35b610373600480360381019061036e9190611372565b611186565b6040516103809190611780565b60405180910390f35b6103a3600480360381019061039e9190611372565b61122e565b6040516103b09190611780565b60405180910390f35b6103c16112d6565b6040516103ce91906114e6565b60405180910390f35b60006060600060608060608060606000600160008b815260200190815260200160002090508060010154816002018260030154836004018460050185600601866007018760080186805461042a90611a2c565b80601f016020809104026020016040519081016040528092919081815260200182805461045690611a2c565b80156104a35780601f10610478576101008083540402835291602001916104a3565b820191906000526020600020905b81548152906001019060200180831161048657829003601f168201915b505050505096508480546104b690611a2c565b80601f01602080910402602001604051908101604052809291908181526020018280546104e290611a2c565b801561052f5780601f106105045761010080835404028352916020019161052f565b820191906000526020600020905b81548152906001019060200180831161051257829003601f168201915b5050505050945083805461054290611a2c565b80601f016020809104026020016040519081016040528092919081815260200182805461056e90611a2c565b80156105bb5780601f10610590576101008083540402835291602001916105bb565b820191906000526020600020905b81548152906001019060200180831161059e57829003601f168201915b505050505093508280546105ce90611a2c565b80601f01602080910402602001604051908101604052809291908181526020018280546105fa90611a2c565b80156106475780601f1061061c57610100808354040283529160200191610647565b820191906000526020600020905b81548152906001019060200180831161062a57829003601f168201915b5050505050925081805461065a90611a2c565b80601f016020809104026020016040519081016040528092919081815260200182805461068690611a2c565b80156106d35780601f106106a8576101008083540402835291602001916106d3565b820191906000526020600020905b8154815290600101906020018083116106b657829003601f168201915b505050505091508080546106e690611a2c565b80601f016020809104026020016040519081016040528092919081815260200182805461071290611a2c565b801561075f5780601f106107345761010080835404028352916020019161075f565b820191906000526020600020905b81548152906001019060200180831161074257829003601f168201915b505050505090509850985098509850985098509850985050919395975091939597565b6002600082815260200190815260200160002060009054906101000a900460ff16156107e3576040517f08c379a00000000000000000000000000000000000000000000000000000000081526004016107da90611aa9565b60405180910390fd5b60006001600083815260200190815260200160002090507fc6318b07148401606296bab2c5170c4a2192e911194cda5e2b5e4231a9508940816000015442836002018460030154856004018660050187600601886007018960080160405161085399989796959493929190611b62565b60405180910390a160016002600084815260200190815260200160002060006101000a81548160ff0219169083151502179055505050565b600060016000838152602001908152602001600020600301549050919050565b6000808154809291906108bd90611c48565b91905055506040518061012001604052806000548152602001428152602001888152602001878152602001868152602001858152602001848152602001838152602001828152506001600080548152602001908152602001600020600082015181600001556020820151816001015560408201518160020190816109419190611e27565b506060820151816003015560808201518160040190816109619190611e27565b5060a08201518160050190816109779190611e27565b5060c082015181600601908161098d9190611e27565b5060e08201518160070190816109a39190611e27565b506101008201518160080190816109ba9190611e27565b50905050600360008154809291906109d190611c48565b91905055507ff6f0cedf9fb27c1f13177a0cd8893984c57b4cee4d2ec0070cc50c4e29d41ddb6000544289898989898989604051610a1799989796959493929190611ef9565b60405180910390a150505050505050565b6060600160008381526020019081526020016000206002018054610a4b90611a2c565b80601f0160208091040260200160405190810160405280929190818152602001828054610a7790611a2c565b8015610ac45780601f10610a9957610100808354040283529160200191610ac4565b820191906000526020600020905b815481529060010190602001808311610aa757829003601f168201915b50505050509050919050565b6060600160008381526020019081526020016000206007018054610af390611a2c565b80601f0160208091040260200160405190810160405280929190818152602001828054610b1f90611a2c565b8015610b6c5780601f10610b4157610100808354040283529160200191610b6c565b820191906000526020600020905b815481529060010190602001808311610b4f57829003601f168201915b50505050509050919050565b60035481565b60026020528060005260406000206000915054906101000a900460ff1681565b6060600160008381526020019081526020016000206006018054610bc190611a2c565b80601f0160208091040260200160405190810160405280929190818152602001828054610bed90611a2c565b8015610c3a5780601f10610c0f57610100808354040283529160200191610c3a565b820191906000526020600020905b815481529060010190602001808311610c1d57829003601f168201915b50505050509050919050565b60008054905090565b6060600160008381526020019081526020016000206005018054610c7290611a2c565b80601f0160208091040260200160405190810160405280929190818152602001828054610c9e90611a2c565b8015610ceb5780601f10610cc057610100808354040283529160200191610ceb565b820191906000526020600020905b815481529060010190602001808311610cce57829003601f168201915b50505050509050919050565b6060600060035467ffffffffffffffff811115610d1757610d1661150b565b5b604051908082528060200260200182016040528015610d5057816020015b610d3d6112dc565b815260200190600190039081610d355790505b50905060005b6003548110156111345760016000828152602001908152602001600020604051806101200160405290816000820154815260200160018201548152602001600282018054610da390611a2c565b80601f0160208091040260200160405190810160405280929190818152602001828054610dcf90611a2c565b8015610e1c5780601f10610df157610100808354040283529160200191610e1c565b820191906000526020600020905b815481529060010190602001808311610dff57829003601f168201915b5050505050815260200160038201548152602001600482018054610e3f90611a2c565b80601f0160208091040260200160405190810160405280929190818152602001828054610e6b90611a2c565b8015610eb85780601f10610e8d57610100808354040283529160200191610eb8565b820191906000526020600020905b815481529060010190602001808311610e9b57829003601f168201915b50505050508152602001600582018054610ed190611a2c565b80601f0160208091040260200160405190810160405280929190818152602001828054610efd90611a2c565b8015610f4a5780601f10610f1f57610100808354040283529160200191610f4a565b820191906000526020600020905b815481529060010190602001808311610f2d57829003601f168201915b50505050508152602001600682018054610f6390611a2c565b80601f0160208091040260200160405190810160405280929190818152602001828054610f8f90611a2c565b8015610fdc5780601f10610fb157610100808354040283529160200191610fdc565b820191906000526020600020905b815481529060010190602001808311610fbf57829003601f168201915b50505050508152602001600782018054610ff590611a2c565b80601f016020809104026020016040519081016040528092919081815260200182805461102190611a2c565b801561106e5780601f106110435761010080835404028352916020019161106e565b820191906000526020600020905b81548152906001019060200180831161105157829003601f168201915b5050505050815260200160088201805461108790611a2c565b80601f01602080910402602001604051908101604052809291908181526020018280546110b390611a2c565b80156111005780601f106110d557610100808354040283529160200191611100565b820191906000526020600020905b8154815290600101906020018083116110e357829003601f168201915b50505050508152505082828151811061111c5761111b611fb0565b5b60200260200101819052508080600101915050610d56565b508091505090565b60006002600083815260200190815260200160002060009054906101000a900460ff169050919050565b600060016000838152602001908152602001600020600101549050919050565b60606001600083815260200190815260200160002060040180546111a990611a2c565b80601f01602080910402602001604051908101604052809291908181526020018280546111d590611a2c565b80156112225780601f106111f757610100808354040283529160200191611222565b820191906000526020600020905b81548152906001019060200180831161120557829003601f168201915b50505050509050919050565b606060016000838152602001908152602001600020600801805461125190611a2c565b80601f016020809104026020016040519081016040528092919081815260200182805461127d90611a2c565b80156112ca5780601f1061129f576101008083540402835291602001916112ca565b820191906000526020600020905b8154815290600101906020018083116112ad57829003601f168201915b50505050509050919050565b60005481565b6040518061012001604052806000815260200160008152602001606081526020016000815260200160608152602001606081526020016060815260200160608152602001606081525090565b6000604051905090565b600080fd5b600080fd5b6000819050919050565b61134f8161133c565b811461135a57600080fd5b50565b60008135905061136c81611346565b92915050565b60006020828403121561138857611387611332565b5b60006113968482850161135d565b91505092915050565b6113a88161133c565b82525050565b600081519050919050565b600082825260208201905092915050565b60005b838110156113e85780820151818401526020810190506113cd565b60008484015250505050565b6000601f19601f8301169050919050565b6000611410826113ae565b61141a81856113b9565b935061142a8185602086016113ca565b611433816113f4565b840191505092915050565b600061010082019050611454600083018b61139f565b8181036020830152611466818a611405565b9050611475604083018961139f565b81810360608301526114878188611405565b9050818103608083015261149b8187611405565b905081810360a08301526114af8186611405565b905081810360c08301526114c38185611405565b905081810360e08301526114d78184611405565b90509998505050505050505050565b60006020820190506114fb600083018461139f565b92915050565b600080fd5b600080fd5b7f4e487b7100000000000000000000000000000000000000000000000000000000600052604160045260246000fd5b611543826113f4565b810181811067ffffffffffffffff821117156115625761156161150b565b5b80604052505050565b6000611575611328565b9050611581828261153a565b919050565b600067ffffffffffffffff8211156115a1576115a061150b565b5b6115aa826113f4565b9050602081019050919050565b82818337600083830152505050565b60006115d96115d484611586565b61156b565b9050828152602081018484840111156115f5576115f4611506565b5b6116008482856115b7565b509392505050565b600082601f83011261161d5761161c611501565b5b813561162d8482602086016115c6565b91505092915050565b600080600080600080600060e0888a03121561165557611654611332565b5b600088013567ffffffffffffffff81111561167357611672611337565b5b61167f8a828b01611608565b97505060206116908a828b0161135d565b965050604088013567ffffffffffffffff8111156116b1576116b0611337565b5b6116bd8a828b01611608565b955050606088013567ffffffffffffffff8111156116de576116dd611337565b5b6116ea8a828b01611608565b945050608088013567ffffffffffffffff81111561170b5761170a611337565b5b6117178a828b01611608565b93505060a088013567ffffffffffffffff81111561173857611737611337565b5b6117448a828b01611608565b92505060c088013567ffffffffffffffff81111561176557611764611337565b5b6117718a828b01611608565b91505092959891949750929550565b6000602082019050818103600083015261179a8184611405565b905092915050565b60008115159050919050565b6117b7816117a2565b82525050565b60006020820190506117d260008301846117ae565b92915050565b600081519050919050565b600082825260208201905092915050565b6000819050602082019050919050565b61180d8161133c565b82525050565b600082825260208201905092915050565b600061182f826113ae565b6118398185611813565b93506118498185602086016113ca565b611852816113f4565b840191505092915050565b6000610120830160008301516118766000860182611804565b5060208301516118896020860182611804565b50604083015184820360408601526118a18282611824565b91505060608301516118b66060860182611804565b50608083015184820360808601526118ce8282611824565b91505060a083015184820360a08601526118e88282611824565b91505060c083015184820360c08601526119028282611824565b91505060e083015184820360e086015261191c8282611824565b9150506101008301518482036101008601526119388282611824565b9150508091505092915050565b6000611951838361185d565b905092915050565b6000602082019050919050565b6000611971826117d8565b61197b81856117e3565b93508360208202850161198d856117f4565b8060005b858110156119c957848403895281516119aa8582611945565b94506119b583611959565b925060208a01995050600181019050611991565b50829750879550505050505092915050565b600060208201905081810360008301526119f58184611966565b905092915050565b7f4e487b7100000000000000000000000000000000000000000000000000000000600052602260045260246000fd5b60006002820490506001821680611a4457607f821691505b602082108103611a5757611a566119fd565b5b50919050565b7f546865207265636f726420697320616c72656164792064656c65746564000000600082015250565b6000611a93601d836113b9565b9150611a9e82611a5d565b602082019050919050565b60006020820190508181036000830152611ac281611a86565b9050919050565b60008190508160005260206000209050919050565b60008154611aeb81611a2c565b611af581866113b9565b94506001821660008114611b105760018114611b2657611b59565b60ff198316865281151560200286019350611b59565b611b2f85611ac9565b60005b83811015611b5157815481890152600182019150602081019050611b32565b808801955050505b50505092915050565b600061012082019050611b78600083018c61139f565b611b85602083018b61139f565b8181036040830152611b97818a611ade565b9050611ba6606083018961139f565b8181036080830152611bb88188611ade565b905081810360a0830152611bcc8187611ade565b905081810360c0830152611be08186611ade565b905081810360e0830152611bf48185611ade565b9050818103610100830152611c098184611ade565b90509a9950505050505050505050565b7f4e487b7100000000000000000000000000000000000000000000000000000000600052601160045260246000fd5b6000611c538261133c565b91507fffffffffffffffffffffffffffffffffffffffffffffffffffffffffffffffff8203611c8557611c84611c19565b5b600182019050919050565b60006020601f8301049050919050565b600082821b905092915050565b600060088302611cdd7fffffffffffffffffffffffffffffffffffffffffffffffffffffffffffffffff82611ca0565b611ce78683611ca0565b95508019841693508086168417925050509392505050565b6000819050919050565b6000611d24611d1f611d1a8461133c565b611cff565b61133c565b9050919050565b6000819050919050565b611d3e83611d09565b611d52611d4a82611d2b565b848454611cad565b825550505050565b600090565b611d67611d5a565b611d72818484611d35565b505050565b5b81811015611d9657611d8b600082611d5f565b600181019050611d78565b5050565b601f821115611ddb57611dac81611ac9565b611db584611c90565b81016020851015611dc4578190505b611dd8611dd085611c90565b830182611d77565b50505b505050565b600082821c905092915050565b6000611dfe60001984600802611de0565b1980831691505092915050565b6000611e178383611ded565b9150826002028217905092915050565b611e30826113ae565b67ffffffffffffffff811115611e4957611e4861150b565b5b611e538254611a2c565b611e5e828285611d9a565b600060209050601f831160018114611e915760008415611e7f578287015190505b611e898582611e0b565b865550611ef1565b601f198416611e9f86611ac9565b60005b82811015611ec757848901518255600182019150602085019450602081019050611ea2565b86831015611ee45784890151611ee0601f891682611ded565b8355505b6001600288020188555050505b505050505050565b600061012082019050611f0f600083018c61139f565b611f1c602083018b61139f565b8181036040830152611f2e818a611405565b9050611f3d606083018961139f565b8181036080830152611f4f8188611405565b905081810360a0830152611f638187611405565b905081810360c0830152611f778186611405565b905081810360e0830152611f8b8185611405565b9050818103610100830152611fa08184611405565b90509a9950505050505050505050565b7f4e487b7100000000000000000000000000000000000000000000000000000000600052603260045260246000fdfea2646970667358221220c215737bae70e55d7fabcf8a21e28000574f5775e7b340669be4774b152484e364736f6c63430008180033",
  "linkReferences": {},
  "deployedLinkReferences": {}
}